{
  "contractName": "DogsUpdated",
  "abi": [
    {
      "inputs": [],
      "payable": false,
      "stateMutability": "nonpayable",
      "type": "constructor"
    },
    {
      "constant": true,
      "inputs": [],
      "name": "_initialized",
      "outputs": [
        {
          "internalType": "bool",
          "name": "",
          "type": "bool"
        }
      ],
      "payable": false,
      "stateMutability": "view",
      "type": "function"
    },
    {
      "constant": true,
      "inputs": [],
      "name": "getNumberOfDogs",
      "outputs": [
        {
          "internalType": "uint256",
          "name": "",
          "type": "uint256"
        }
      ],
      "payable": false,
      "stateMutability": "view",
      "type": "function"
    },
    {
      "constant": true,
      "inputs": [],
      "name": "owner",
      "outputs": [
        {
          "internalType": "address",
          "name": "",
          "type": "address"
        }
      ],
      "payable": false,
      "stateMutability": "view",
      "type": "function"
    },
    {
      "constant": false,
      "inputs": [
        {
          "internalType": "uint256",
          "name": "toSet",
          "type": "uint256"
        }
      ],
      "name": "setNumberOfDogs",
      "outputs": [],
      "payable": false,
      "stateMutability": "nonpayable",
      "type": "function"
    },
    {
      "constant": false,
      "inputs": [
        {
          "internalType": "address",
          "name": "_owner",
          "type": "address"
        }
      ],
      "name": "initialize",
      "outputs": [],
      "payable": false,
      "stateMutability": "nonpayable",
      "type": "function"
    }
  ],
  "bytecode": "0x608060405234801561001057600080fd5b5033600a60006101000a81548173ffffffffffffffffffffffffffffffffffffffff021916908373ffffffffffffffffffffffffffffffffffffffff1602179055506100613361006660201b60201c565b6100df565b600a60149054906101000a900460ff161561008057600080fd5b80600a60006101000a81548173ffffffffffffffffffffffffffffffffffffffff021916908373ffffffffffffffffffffffffffffffffffffffff1602179055506001600a60146101000a81548160ff02191690831515021790555050565b6102ca806100ee6000396000f3fe608060405234801561001057600080fd5b50600436106100575760003560e01c806314861b221461005c5780631680a5ed1461008a5780633072cf60146100a85780638da5cb5b146100ca578063c4d66de814610114575b600080fd5b6100886004803603602081101561007257600080fd5b8101908080359060200190929190505050610158565b005b61009261019e565b6040518082815260200191505060405180910390f35b6100b06101e3565b604051808215151515815260200191505060405180910390f35b6100d26101f6565b604051808273ffffffffffffffffffffffffffffffffffffffff1673ffffffffffffffffffffffffffffffffffffffff16815260200191505060405180910390f35b6101566004803603602081101561012a57600080fd5b81019080803573ffffffffffffffffffffffffffffffffffffffff16906020019092919050505061021c565b005b80600060405180807f446f677300000000000000000000000000000000000000000000000000000000815250600401905090815260200160405180910390208190555050565b60008060405180807f446f6773000000000000000000000000000000000000000000000000000000008152506004019050908152602001604051809103902054905090565b600a60149054906101000a900460ff1681565b600a60009054906101000a900473ffffffffffffffffffffffffffffffffffffffff1681565b600a60149054906101000a900460ff161561023657600080fd5b80600a60006101000a81548173ffffffffffffffffffffffffffffffffffffffff021916908373ffffffffffffffffffffffffffffffffffffffff1602179055506001600a60146101000a81548160ff0219169083151502179055505056fea265627a7a7231582057a3e4365994e0f997e5176ef52d4bfa072cb3d8c32598d614985600cd63063a64736f6c63430005100032",
  "source": "pragma solidity 0.5.16;\r\n\r\nimport \"./Dogs.sol\";\r\n\r\ncontract DogsUpdated is Dogs {\r\n\r\n  constructor() public {\r\n    initialize(msg.sender);\r\n  }\r\n\r\n  function initialize(address _owner) public {\r\n    require(!_initialized);\r\n    owner = _owner;\r\n    _initialized = true;\r\n  }\r\n}\r\n",
  "sourcePath": "C:\\Users\\tkrei\\OneDrive\\Ivan_On_Tech\\Smart Contract Security\\Upgradeability\\contracts\\DogsUpdated.sol",
  "compiler": {
    "name": "solc",
    "version": "0.5.16+commit.9c3226ce.Emscripten.clang"
  },
  "schemaVersion": "3.2.0",
  "updatedAt": "2020-11-05T17:53:47.416Z",
  "networkType": "ethereum",
  "devdoc": {
    "methods": {}
  },
  "userdoc": {
    "methods": {}
  }
}