{
  "contractName": "Storage",
  "abi": [
    {
      "constant": true,
      "inputs": [],
      "name": "_initialized",
      "outputs": [
        {
          "internalType": "bool",
          "name": "",
          "type": "bool"
        }
      ],
      "payable": false,
      "stateMutability": "view",
      "type": "function"
    },
    {
      "constant": true,
      "inputs": [],
      "name": "owner",
      "outputs": [
        {
          "internalType": "address",
          "name": "",
          "type": "address"
        }
      ],
      "payable": false,
      "stateMutability": "view",
      "type": "function"
    }
  ],
  "bytecode": "0x608060405234801561001057600080fd5b5061010d806100206000396000f3fe6080604052348015600f57600080fd5b506004361060325760003560e01c80633072cf601460375780638da5cb5b146057575b600080fd5b603d609f565b604051808215151515815260200191505060405180910390f35b605d60b2565b604051808273ffffffffffffffffffffffffffffffffffffffff1673ffffffffffffffffffffffffffffffffffffffff16815260200191505060405180910390f35b600a60149054906101000a900460ff1681565b600a60009054906101000a900473ffffffffffffffffffffffffffffffffffffffff168156fea265627a7a72315820085d355adc8890453709bdea6bdc6a005b2cb7cbbd26a7b8425bb161c3acf09e64736f6c63430005100032",
  "source": "pragma solidity 0.5.16;\r\n\r\ncontract Storage {//must remain ummutable.\r\n  mapping (string => uint256) _uintStorage;// new variable can be declared like this: _uintStorage[\"number\"] = 4;\r\n  mapping (string => address) _addressStorage;// new variable can be declared like this: _addressStorage[\"player1\"];\r\n  mapping (string => bool) _boolStorage;// new variable can be declared like this: _boolStorage[\"success\"] = true;\r\n  mapping (string => string) _stringStorage;// new variable can be declared like this: _stringStorage[\"name\"] = \"Paul\";\r\n  mapping (string => bytes4) _bytesStorage;// new variable can be declared like this: _bytesStorage[\"code\"];\r\n  mapping (string => mapping (string => uint256)) _uintMappingStorage;//new mapping can be declared like this: _uintMappingStorage[\"name\"];\r\n  mapping (string => mapping (string => address)) _addressMappingStorage;// new variable can be declared like this: _addressStorage[\"player1\"];\r\n  mapping (string => mapping (string => bool)) _boolMappingStorage;// new variable can be declared like this: _boolStorage[\"success\"] = true;\r\n  mapping (string => mapping (string => string)) _stringMappingStorage;// new variable can be declared like this: _stringStorage[\"name\"] = \"Paul\";\r\n  mapping (string => mapping (string => bytes4)) _bytesMappingStorage;\r\n  address public owner;\r\n  bool public _initialized;\r\n}\r\n",
  "sourcePath": "C:\\Users\\tkrei\\OneDrive\\Ivan_On_Tech\\Smart Contract Security\\Upgradeability\\contracts\\Storage.sol",
  "compiler": {
    "name": "solc",
    "version": "0.5.16+commit.9c3226ce.Emscripten.clang"
  },
  "schemaVersion": "3.2.0",
  "updatedAt": "2020-11-05T17:53:44.425Z",
  "devdoc": {
    "methods": {}
  },
  "userdoc": {
    "methods": {}
  }
}